{
  "_format": "hh-sol-artifact-1",
  "contractName": "Escrow",
  "sourceName": "contracts/Escrow.sol",
  "abi": [
    {
      "inputs": [],
      "stateMutability": "nonpayable",
      "type": "constructor"
    },
    {
      "inputs": [
        {
          "internalType": "string",
          "name": "_productName",
          "type": "string"
        },
        {
          "internalType": "string",
          "name": "_productDescription",
          "type": "string"
        },
        {
          "internalType": "string",
          "name": "_productCategory",
          "type": "string"
        },
        {
          "internalType": "uint256",
          "name": "_price",
          "type": "uint256"
        },
        {
          "internalType": "string",
          "name": "_productImageURL",
          "type": "string"
        },
        {
          "internalType": "string",
          "name": "_sellerEmail",
          "type": "string"
        }
      ],
      "name": "addToBlockchain",
      "outputs": [],
      "stateMutability": "nonpayable",
      "type": "function"
    },
    {
      "inputs": [
        {
          "internalType": "uint256",
          "name": "_id",
          "type": "uint256"
        },
        {
          "internalType": "string",
          "name": "_productName",
          "type": "string"
        },
        {
          "internalType": "string",
          "name": "_productDescription",
          "type": "string"
        },
        {
          "internalType": "uint256",
          "name": "_price",
          "type": "uint256"
        },
        {
          "internalType": "string",
          "name": "_productImageURL",
          "type": "string"
        },
        {
          "internalType": "string",
          "name": "_sellerEmail",
          "type": "string"
        },
        {
          "internalType": "address",
          "name": "_sellerAddress",
          "type": "address"
        },
        {
          "internalType": "uint256",
          "name": "_timeToRevert",
          "type": "uint256"
        }
      ],
      "name": "addToCart",
      "outputs": [],
      "stateMutability": "payable",
      "type": "function"
    },
    {
      "inputs": [
        {
          "internalType": "uint256",
          "name": "",
          "type": "uint256"
        }
      ],
      "name": "cart",
      "outputs": [
        {
          "internalType": "uint256",
          "name": "productId",
          "type": "uint256"
        },
        {
          "internalType": "address",
          "name": "sellerAddress",
          "type": "address"
        },
        {
          "internalType": "address",
          "name": "buyerAddress",
          "type": "address"
        },
        {
          "internalType": "string",
          "name": "productName",
          "type": "string"
        },
        {
          "internalType": "string",
          "name": "productDescription",
          "type": "string"
        },
        {
          "internalType": "uint256",
          "name": "price",
          "type": "uint256"
        },
        {
          "internalType": "string",
          "name": "productImageURL",
          "type": "string"
        },
        {
          "internalType": "string",
          "name": "sellerEmail",
          "type": "string"
        },
        {
          "internalType": "uint256",
          "name": "timeToRevert",
          "type": "uint256"
        },
        {
          "internalType": "uint256",
          "name": "timestamp",
          "type": "uint256"
        }
      ],
      "stateMutability": "view",
      "type": "function"
    },
    {
      "inputs": [],
      "name": "contractAmount",
      "outputs": [
        {
          "internalType": "uint256",
          "name": "",
          "type": "uint256"
        }
      ],
      "stateMutability": "view",
      "type": "function"
    },
    {
      "inputs": [],
      "name": "contractDeployer",
      "outputs": [
        {
          "internalType": "address payable",
          "name": "",
          "type": "address"
        }
      ],
      "stateMutability": "view",
      "type": "function"
    },
    {
      "inputs": [
        {
          "internalType": "uint256",
          "name": "_id",
          "type": "uint256"
        }
      ],
      "name": "deleteCard",
      "outputs": [],
      "stateMutability": "nonpayable",
      "type": "function"
    },
    {
      "inputs": [],
      "name": "getAllProdcuts",
      "outputs": [
        {
          "components": [
            {
              "internalType": "uint256",
              "name": "productId",
              "type": "uint256"
            },
            {
              "internalType": "address",
              "name": "seller",
              "type": "address"
            },
            {
              "internalType": "string",
              "name": "productName",
              "type": "string"
            },
            {
              "internalType": "string",
              "name": "productDescription",
              "type": "string"
            },
            {
              "internalType": "string",
              "name": "productCategory",
              "type": "string"
            },
            {
              "internalType": "uint256",
              "name": "price",
              "type": "uint256"
            },
            {
              "internalType": "string",
              "name": "productImageURL",
              "type": "string"
            },
            {
              "internalType": "string",
              "name": "sellerEmail",
              "type": "string"
            },
            {
              "internalType": "bool",
              "name": "hasPurchased",
              "type": "bool"
            },
            {
              "internalType": "uint256",
              "name": "timestamp",
              "type": "uint256"
            }
          ],
          "internalType": "struct Escrow.productInfo[]",
          "name": "",
          "type": "tuple[]"
        }
      ],
      "stateMutability": "view",
      "type": "function"
    },
    {
      "inputs": [
        {
          "internalType": "address",
          "name": "buyerAddress",
          "type": "address"
        },
        {
          "internalType": "uint256",
          "name": "_id",
          "type": "uint256"
        }
      ],
      "name": "getDeposits",
      "outputs": [
        {
          "internalType": "uint256",
          "name": "amount",
          "type": "uint256"
        },
        {
          "internalType": "bool",
          "name": "done",
          "type": "bool"
        }
      ],
      "stateMutability": "view",
      "type": "function"
    },
    {
      "inputs": [],
      "name": "getSenderAddress",
      "outputs": [
        {
          "internalType": "address",
          "name": "",
          "type": "address"
        }
      ],
      "stateMutability": "view",
      "type": "function"
    },
    {
      "inputs": [],
      "name": "id",
      "outputs": [
        {
          "internalType": "uint256",
          "name": "",
          "type": "uint256"
        }
      ],
      "stateMutability": "view",
      "type": "function"
    },
    {
      "inputs": [
        {
          "internalType": "address",
          "name": "",
          "type": "address"
        },
        {
          "internalType": "uint256",
          "name": "",
          "type": "uint256"
        }
      ],
      "name": "isPaymentDone",
      "outputs": [
        {
          "internalType": "bool",
          "name": "",
          "type": "bool"
        }
      ],
      "stateMutability": "view",
      "type": "function"
    },
    {
      "inputs": [
        {
          "internalType": "address",
          "name": "",
          "type": "address"
        },
        {
          "internalType": "uint256",
          "name": "",
          "type": "uint256"
        }
      ],
      "name": "payment",
      "outputs": [
        {
          "internalType": "uint256",
          "name": "",
          "type": "uint256"
        }
      ],
      "stateMutability": "view",
      "type": "function"
    },
    {
      "inputs": [
        {
          "internalType": "uint256",
          "name": "_id",
          "type": "uint256"
        }
      ],
      "name": "removeFromCart",
      "outputs": [],
      "stateMutability": "nonpayable",
      "type": "function"
    },
    {
      "inputs": [],
      "name": "reteriveCart",
      "outputs": [
        {
          "components": [
            {
              "internalType": "uint256",
              "name": "productId",
              "type": "uint256"
            },
            {
              "internalType": "address",
              "name": "sellerAddress",
              "type": "address"
            },
            {
              "internalType": "address",
              "name": "buyerAddress",
              "type": "address"
            },
            {
              "internalType": "string",
              "name": "productName",
              "type": "string"
            },
            {
              "internalType": "string",
              "name": "productDescription",
              "type": "string"
            },
            {
              "internalType": "uint256",
              "name": "price",
              "type": "uint256"
            },
            {
              "internalType": "string",
              "name": "productImageURL",
              "type": "string"
            },
            {
              "internalType": "string",
              "name": "sellerEmail",
              "type": "string"
            },
            {
              "internalType": "uint256",
              "name": "timeToRevert",
              "type": "uint256"
            },
            {
              "internalType": "uint256",
              "name": "timestamp",
              "type": "uint256"
            }
          ],
          "internalType": "struct Escrow.cartInfo[]",
          "name": "",
          "type": "tuple[]"
        }
      ],
      "stateMutability": "view",
      "type": "function"
    },
    {
      "inputs": [
        {
          "internalType": "uint256",
          "name": "_id",
          "type": "uint256"
        },
        {
          "internalType": "address payable",
          "name": "buyerAddress",
          "type": "address"
        }
      ],
      "name": "transferToBuyer",
      "outputs": [],
      "stateMutability": "nonpayable",
      "type": "function"
    },
    {
      "inputs": [
        {
          "internalType": "uint256",
          "name": "_id",
          "type": "uint256"
        },
        {
          "internalType": "address payable",
          "name": "sellerAddress",
          "type": "address"
        },
        {
          "internalType": "address",
          "name": "buyerAddress",
          "type": "address"
        }
      ],
      "name": "transferToSeller",
      "outputs": [],
      "stateMutability": "nonpayable",
      "type": "function"
    },
    {
      "inputs": [
        {
          "internalType": "uint256",
          "name": "_id",
          "type": "uint256"
        }
      ],
      "name": "updateShop",
      "outputs": [],
      "stateMutability": "nonpayable",
      "type": "function"
    }
  ],
  "bytecode": "0x60806040526001805534801561001457600080fd5b50336000806101000a81548173ffffffffffffffffffffffffffffffffffffffff021916908373ffffffffffffffffffffffffffffffffffffffff160217905550612d13806100646000396000f3fe6080604052600436106100fe5760003560e01c80639d9c12b711610095578063c6c8c50211610064578063c6c8c5021461032f578063ca29610e14610358578063eed5644214610381578063f02b8cdb146103ac578063f5b842f7146103d7576100fe565b80639d9c12b714610273578063a24bfc6e146102b0578063af640d0f146102db578063c2cb3ccb14610306576100fe565b80635e1acf65116100d15780635e1acf65146101c857806362066099146101f157806367a09c231461021a5780637a3c7dc014610257576100fe565b80631d586f7c1461010357806335368f721461014957806342948e1814610172578063565a57ca1461019d575b600080fd5b34801561010f57600080fd5b5061012a600480360381019061012591906121d0565b610415565b6040516101409a99989796959493929190612818565b60405180910390f35b34801561015557600080fd5b50610170600480360381019061016b91906121f9565b6106d9565b005b34801561017e57600080fd5b506101876107f5565b6040516101949190612768565b60405180910390f35b3480156101a957600080fd5b506101b26107fd565b6040516101bf91906127fd565b60405180910390f35b3480156101d457600080fd5b506101ef60048036038101906101ea91906121d0565b610805565b005b3480156101fd57600080fd5b50610218600480360381019061021391906121d0565b610ba5565b005b34801561022657600080fd5b50610241600480360381019061023c9190612093565b610c8d565b60405161024e91906127fd565b60405180910390f35b610271600480360381019061026c9190612284565b610cb2565b005b34801561027f57600080fd5b5061029a60048036038101906102959190612093565b610ee5565b6040516102a791906127e2565b60405180910390f35b3480156102bc57600080fd5b506102c5610f14565b6040516102d29190612783565b60405180910390f35b3480156102e757600080fd5b506102f0610f38565b6040516102fd91906127fd565b60405180910390f35b34801561031257600080fd5b5061032d60048036038101906103289190612235565b610f3e565b005b34801561033b57600080fd5b50610356600480360381019061035191906120cf565b6110e5565b005b34801561036457600080fd5b5061037f600480360381019061037a91906121d0565b6112ab565b005b34801561038d57600080fd5b5061039661167a565b6040516103a391906127c0565b60405180910390f35b3480156103b857600080fd5b506103c1611a43565b6040516103ce919061279e565b60405180910390f35b3480156103e357600080fd5b506103fe60048036038101906103f99190612093565b611dbf565b60405161040c9291906128d0565b60405180910390f35b6005818154811061042557600080fd5b90600052602060002090600a02016000915090508060000154908060010160009054906101000a900473ffffffffffffffffffffffffffffffffffffffff16908060020160009054906101000a900473ffffffffffffffffffffffffffffffffffffffff169080600301805461049a90612b50565b80601f01602080910402602001604051908101604052809291908181526020018280546104c690612b50565b80156105135780601f106104e857610100808354040283529160200191610513565b820191906000526020600020905b8154815290600101906020018083116104f657829003601f168201915b50505050509080600401805461052890612b50565b80601f016020809104026020016040519081016040528092919081815260200182805461055490612b50565b80156105a15780601f10610576576101008083540402835291602001916105a1565b820191906000526020600020905b81548152906001019060200180831161058457829003601f168201915b5050505050908060050154908060060180546105bc90612b50565b80601f01602080910402602001604051908101604052809291908181526020018280546105e890612b50565b80156106355780601f1061060a57610100808354040283529160200191610635565b820191906000526020600020905b81548152906001019060200180831161061857829003601f168201915b50505050509080600701805461064a90612b50565b80601f016020809104026020016040519081016040528092919081815260200182805461067690612b50565b80156106c35780601f10610698576101008083540402835291602001916106c3565b820191906000526020600020905b8154815290600101906020018083116106a657829003601f168201915b505050505090806008015490806009015490508a565b6000600260008373ffffffffffffffffffffffffffffffffffffffff1673ffffffffffffffffffffffffffffffffffffffff16815260200190815260200160002060008481526020019081526020016000205490508173ffffffffffffffffffffffffffffffffffffffff166108fc829081150290604051600060405180830381858888f19350505050158015610774573d6000803e3d6000fd5b506001600360008473ffffffffffffffffffffffffffffffffffffffff1673ffffffffffffffffffffffffffffffffffffffff168152602001908152602001600020600085815260200190815260200160002060006101000a81548160ff0219169083151502179055506107e7836112ab565b6107f083610805565b505050565b600033905090565b600047905090565b600080600090505b600480549050811015610888578260048281548110610855577f4e487b7100000000000000000000000000000000000000000000000000000000600052603260045260246000fd5b90600052602060002090600a020160000154141561087557809150610888565b808061088090612b82565b91505061080d565b5060008190505b60016004805490506108a19190612a80565b811015610aac5760046001826108b791906129f9565b815481106108ee577f4e487b7100000000000000000000000000000000000000000000000000000000600052603260045260246000fd5b90600052602060002090600a020160048281548110610936577f4e487b7100000000000000000000000000000000000000000000000000000000600052603260045260246000fd5b90600052602060002090600a0201600082015481600001556001820160009054906101000a900473ffffffffffffffffffffffffffffffffffffffff168160010160006101000a81548173ffffffffffffffffffffffffffffffffffffffff021916908373ffffffffffffffffffffffffffffffffffffffff16021790555060028201816002019080546109c990612b50565b6109d4929190611e7c565b5060038201816003019080546109e990612b50565b6109f4929190611e7c565b506004820181600401908054610a0990612b50565b610a14929190611e7c565b50600582015481600501556006820181600601908054610a3390612b50565b610a3e929190611e7c565b506007820181600701908054610a5390612b50565b610a5e929190611e7c565b506008820160009054906101000a900460ff168160080160006101000a81548160ff021916908315150217905550600982015481600901559050508080610aa490612b82565b91505061088f565b506004805480610ae5577f4e487b7100000000000000000000000000000000000000000000000000000000600052603160045260246000fd5b60019003818190600052602060002090600a02016000808201600090556001820160006101000a81549073ffffffffffffffffffffffffffffffffffffffff0219169055600282016000610b399190611f09565b600382016000610b499190611f09565b600482016000610b599190611f09565b6005820160009055600682016000610b719190611f09565b600782016000610b819190611f09565b6008820160006101000a81549060ff02191690556009820160009055505090555050565b600080600090505b600480549050811015610c24578260048281548110610bf5577f4e487b7100000000000000000000000000000000000000000000000000000000600052603260045260246000fd5b90600052602060002090600a0201600001541415610c11578091505b8080610c1c90612b82565b915050610bad565b50600160048281548110610c61577f4e487b7100000000000000000000000000000000000000000000000000000000600052603260045260246000fd5b90600052602060002090600a020160080160006101000a81548160ff0219169083151502179055505050565b6002602052816000526040600020602052806000526040600020600091509150505481565b60056040518061014001604052808a81526020018473ffffffffffffffffffffffffffffffffffffffff1681526020013373ffffffffffffffffffffffffffffffffffffffff1681526020018981526020018881526020018781526020018681526020018581526020018381526020014281525090806001815401808255809150506001900390600052602060002090600a02016000909190919091506000820151816000015560208201518160010160006101000a81548173ffffffffffffffffffffffffffffffffffffffff021916908373ffffffffffffffffffffffffffffffffffffffff16021790555060408201518160020160006101000a81548173ffffffffffffffffffffffffffffffffffffffff021916908373ffffffffffffffffffffffffffffffffffffffff1602179055506060820151816003019080519060200190610e03929190611f49565b506080820151816004019080519060200190610e20929190611f49565b5060a0820151816005015560c0820151816006019080519060200190610e47929190611f49565b5060e0820151816007019080519060200190610e64929190611f49565b50610100820151816008015561012082015181600901555050610e8688610ba5565b84600260003373ffffffffffffffffffffffffffffffffffffffff1673ffffffffffffffffffffffffffffffffffffffff16815260200190815260200160002060008a8152602001908152602001600020819055505050505050505050565b60036020528160005260406000206020528060005260406000206000915091509054906101000a900460ff1681565b60008054906101000a900473ffffffffffffffffffffffffffffffffffffffff1681565b60015481565b6000600260008373ffffffffffffffffffffffffffffffffffffffff1673ffffffffffffffffffffffffffffffffffffffff16815260200190815260200160002060008581526020019081526020016000205490506000601482610fa29190612a4f565b905060008183610fb29190612a80565b905060008054906101000a900473ffffffffffffffffffffffffffffffffffffffff1673ffffffffffffffffffffffffffffffffffffffff166108fc839081150290604051600060405180830381858888f1935050505015801561101a573d6000803e3d6000fd5b508473ffffffffffffffffffffffffffffffffffffffff166108fc829081150290604051600060405180830381858888f19350505050158015611061573d6000803e3d6000fd5b506001600360008673ffffffffffffffffffffffffffffffffffffffff1673ffffffffffffffffffffffffffffffffffffffff168152602001908152602001600020600088815260200190815260200160002060006101000a81548160ff0219169083151502179055506110d4866112ab565b6110dd86610805565b505050505050565b600460405180610140016040528060015481526020013373ffffffffffffffffffffffffffffffffffffffff1681526020018881526020018781526020018681526020018581526020018481526020018381526020016000151581526020014281525090806001815401808255809150506001900390600052602060002090600a02016000909190919091506000820151816000015560208201518160010160006101000a81548173ffffffffffffffffffffffffffffffffffffffff021916908373ffffffffffffffffffffffffffffffffffffffff16021790555060408201518160020190805190602001906111de929190611f49565b5060608201518160030190805190602001906111fb929190611f49565b506080820151816004019080519060200190611218929190611f49565b5060a0820151816005015560c082015181600601908051906020019061123f929190611f49565b5060e082015181600701908051906020019061125c929190611f49565b506101008201518160080160006101000a81548160ff021916908315150217905550610120820151816009015550506001600081548092919061129e90612b82565b9190505550505050505050565b600080600090505b60058054905081101561132e5782600582815481106112fb577f4e487b7100000000000000000000000000000000000000000000000000000000600052603260045260246000fd5b90600052602060002090600a020160000154141561131b5780915061132e565b808061132690612b82565b9150506112b3565b5060008190505b60016005805490506113479190612a80565b81101561157657600560018261135d91906129f9565b81548110611394577f4e487b7100000000000000000000000000000000000000000000000000000000600052603260045260246000fd5b90600052602060002090600a0201600582815481106113dc577f4e487b7100000000000000000000000000000000000000000000000000000000600052603260045260246000fd5b90600052602060002090600a0201600082015481600001556001820160009054906101000a900473ffffffffffffffffffffffffffffffffffffffff168160010160006101000a81548173ffffffffffffffffffffffffffffffffffffffff021916908373ffffffffffffffffffffffffffffffffffffffff1602179055506002820160009054906101000a900473ffffffffffffffffffffffffffffffffffffffff168160020160006101000a81548173ffffffffffffffffffffffffffffffffffffffff021916908373ffffffffffffffffffffffffffffffffffffffff16021790555060038201816003019080546114d690612b50565b6114e1929190611e7c565b5060048201816004019080546114f690612b50565b611501929190611e7c565b5060058201548160050155600682018160060190805461152090612b50565b61152b929190611e7c565b50600782018160070190805461154090612b50565b61154b929190611e7c565b506008820154816008015560098201548160090155905050808061156e90612b82565b915050611335565b5060058054806115af577f4e487b7100000000000000000000000000000000000000000000000000000000600052603160045260246000fd5b60019003818190600052602060002090600a02016000808201600090556001820160006101000a81549073ffffffffffffffffffffffffffffffffffffffff02191690556002820160006101000a81549073ffffffffffffffffffffffffffffffffffffffff021916905560038201600061162a9190611f09565b60048201600061163a9190611f09565b60058201600090556006820160006116529190611f09565b6007820160006116629190611f09565b60088201600090556009820160009055505090555050565b60606004805480602002602001604051908101604052809291908181526020016000905b82821015611a3a57838290600052602060002090600a020160405180610140016040529081600082015481526020016001820160009054906101000a900473ffffffffffffffffffffffffffffffffffffffff1673ffffffffffffffffffffffffffffffffffffffff1673ffffffffffffffffffffffffffffffffffffffff16815260200160028201805461173290612b50565b80601f016020809104026020016040519081016040528092919081815260200182805461175e90612b50565b80156117ab5780601f10611780576101008083540402835291602001916117ab565b820191906000526020600020905b81548152906001019060200180831161178e57829003601f168201915b505050505081526020016003820180546117c490612b50565b80601f01602080910402602001604051908101604052809291908181526020018280546117f090612b50565b801561183d5780601f106118125761010080835404028352916020019161183d565b820191906000526020600020905b81548152906001019060200180831161182057829003601f168201915b5050505050815260200160048201805461185690612b50565b80601f016020809104026020016040519081016040528092919081815260200182805461188290612b50565b80156118cf5780601f106118a4576101008083540402835291602001916118cf565b820191906000526020600020905b8154815290600101906020018083116118b257829003601f168201915b50505050508152602001600582015481526020016006820180546118f290612b50565b80601f016020809104026020016040519081016040528092919081815260200182805461191e90612b50565b801561196b5780601f106119405761010080835404028352916020019161196b565b820191906000526020600020905b81548152906001019060200180831161194e57829003601f168201915b5050505050815260200160078201805461198490612b50565b80601f01602080910402602001604051908101604052809291908181526020018280546119b090612b50565b80156119fd5780601f106119d2576101008083540402835291602001916119fd565b820191906000526020600020905b8154815290600101906020018083116119e057829003601f168201915b505050505081526020016008820160009054906101000a900460ff161515151581526020016009820154815250508152602001906001019061169e565b50505050905090565b60606005805480602002602001604051908101604052809291908181526020016000905b82821015611db657838290600052602060002090600a020160405180610140016040529081600082015481526020016001820160009054906101000a900473ffffffffffffffffffffffffffffffffffffffff1673ffffffffffffffffffffffffffffffffffffffff1673ffffffffffffffffffffffffffffffffffffffff1681526020016002820160009054906101000a900473ffffffffffffffffffffffffffffffffffffffff1673ffffffffffffffffffffffffffffffffffffffff1673ffffffffffffffffffffffffffffffffffffffff168152602001600382018054611b5190612b50565b80601f0160208091040260200160405190810160405280929190818152602001828054611b7d90612b50565b8015611bca5780601f10611b9f57610100808354040283529160200191611bca565b820191906000526020600020905b815481529060010190602001808311611bad57829003601f168201915b50505050508152602001600482018054611be390612b50565b80601f0160208091040260200160405190810160405280929190818152602001828054611c0f90612b50565b8015611c5c5780601f10611c3157610100808354040283529160200191611c5c565b820191906000526020600020905b815481529060010190602001808311611c3f57829003601f168201915b5050505050815260200160058201548152602001600682018054611c7f90612b50565b80601f0160208091040260200160405190810160405280929190818152602001828054611cab90612b50565b8015611cf85780601f10611ccd57610100808354040283529160200191611cf8565b820191906000526020600020905b815481529060010190602001808311611cdb57829003601f168201915b50505050508152602001600782018054611d1190612b50565b80601f0160208091040260200160405190810160405280929190818152602001828054611d3d90612b50565b8015611d8a5780601f10611d5f57610100808354040283529160200191611d8a565b820191906000526020600020905b815481529060010190602001808311611d6d57829003601f168201915b505050505081526020016008820154815260200160098201548152505081526020019060010190611a67565b50505050905090565b600080600260008573ffffffffffffffffffffffffffffffffffffffff1673ffffffffffffffffffffffffffffffffffffffff1681526020019081526020016000206000848152602001908152602001600020549150600360008573ffffffffffffffffffffffffffffffffffffffff1673ffffffffffffffffffffffffffffffffffffffff168152602001908152602001600020600084815260200190815260200160002060009054906101000a900460ff1690509250929050565b828054611e8890612b50565b90600052602060002090601f016020900481019282611eaa5760008555611ef8565b82601f10611ebb5780548555611ef8565b82800160010185558215611ef857600052602060002091601f016020900482015b82811115611ef7578254825591600101919060010190611edc565b5b509050611f059190611fcf565b5090565b508054611f1590612b50565b6000825580601f10611f275750611f46565b601f016020900490600052602060002090810190611f459190611fcf565b5b50565b828054611f5590612b50565b90600052602060002090601f016020900481019282611f775760008555611fbe565b82601f10611f9057805160ff1916838001178555611fbe565b82800160010185558215611fbe579182015b82811115611fbd578251825591602001919060010190611fa2565b5b509050611fcb9190611fcf565b5090565b5b80821115611fe8576000816000905550600101611fd0565b5090565b6000611fff611ffa8461292a565b6128f9565b90508281526020810184848401111561201757600080fd5b612022848285612b0e565b509392505050565b60008135905061203981612c98565b92915050565b60008135905061204e81612caf565b92915050565b600082601f83011261206557600080fd5b8135612075848260208601611fec565b91505092915050565b60008135905061208d81612cc6565b92915050565b600080604083850312156120a657600080fd5b60006120b48582860161202a565b92505060206120c58582860161207e565b9150509250929050565b60008060008060008060c087890312156120e857600080fd5b600087013567ffffffffffffffff81111561210257600080fd5b61210e89828a01612054565b965050602087013567ffffffffffffffff81111561212b57600080fd5b61213789828a01612054565b955050604087013567ffffffffffffffff81111561215457600080fd5b61216089828a01612054565b945050606061217189828a0161207e565b935050608087013567ffffffffffffffff81111561218e57600080fd5b61219a89828a01612054565b92505060a087013567ffffffffffffffff8111156121b757600080fd5b6121c389828a01612054565b9150509295509295509295565b6000602082840312156121e257600080fd5b60006121f08482850161207e565b91505092915050565b6000806040838503121561220c57600080fd5b600061221a8582860161207e565b925050602061222b8582860161203f565b9150509250929050565b60008060006060848603121561224a57600080fd5b60006122588682870161207e565b93505060206122698682870161203f565b925050604061227a8682870161202a565b9150509250925092565b600080600080600080600080610100898b0312156122a157600080fd5b60006122af8b828c0161207e565b985050602089013567ffffffffffffffff8111156122cc57600080fd5b6122d88b828c01612054565b975050604089013567ffffffffffffffff8111156122f557600080fd5b6123018b828c01612054565b96505060606123128b828c0161207e565b955050608089013567ffffffffffffffff81111561232f57600080fd5b61233b8b828c01612054565b94505060a089013567ffffffffffffffff81111561235857600080fd5b6123648b828c01612054565b93505060c06123758b828c0161202a565b92505060e06123868b828c0161207e565b9150509295985092959890939650565b60006123a28383612565565b905092915050565b60006123b68383612654565b905092915050565b6123c781612ac6565b82525050565b6123d681612ab4565b82525050565b6123e581612ab4565b82525050565b60006123f68261297a565b61240081856129b5565b9350836020820285016124128561295a565b8060005b8581101561244e578484038952815161242f8582612396565b945061243a8361299b565b925060208a01995050600181019050612416565b50829750879550505050505092915050565b600061246b82612985565b61247581856129c6565b9350836020820285016124878561296a565b8060005b858110156124c357848403895281516124a485826123aa565b94506124af836129a8565b925060208a0199505060018101905061248b565b50829750879550505050505092915050565b6124de81612ad8565b82525050565b6124ed81612ad8565b82525050565b60006124fe82612990565b61250881856129d7565b9350612518818560208601612b1d565b61252181612c87565b840191505092915050565b600061253782612990565b61254181856129e8565b9350612551818560208601612b1d565b61255a81612c87565b840191505092915050565b60006101408301600083015161257e600086018261274a565b50602083015161259160208601826123cd565b5060408301516125a460408601826123cd565b50606083015184820360608601526125bc82826124f3565b915050608083015184820360808601526125d682826124f3565b91505060a08301516125eb60a086018261274a565b5060c083015184820360c086015261260382826124f3565b91505060e083015184820360e086015261261d82826124f3565b91505061010083015161263461010086018261274a565b5061012083015161264961012086018261274a565b508091505092915050565b60006101408301600083015161266d600086018261274a565b50602083015161268060208601826123cd565b506040830151848203604086015261269882826124f3565b915050606083015184820360608601526126b282826124f3565b915050608083015184820360808601526126cc82826124f3565b91505060a08301516126e160a086018261274a565b5060c083015184820360c08601526126f982826124f3565b91505060e083015184820360e086015261271382826124f3565b91505061010083015161272a6101008601826124d5565b5061012083015161273f61012086018261274a565b508091505092915050565b61275381612b04565b82525050565b61276281612b04565b82525050565b600060208201905061277d60008301846123dc565b92915050565b600060208201905061279860008301846123be565b92915050565b600060208201905081810360008301526127b881846123eb565b905092915050565b600060208201905081810360008301526127da8184612460565b905092915050565b60006020820190506127f760008301846124e4565b92915050565b60006020820190506128126000830184612759565b92915050565b60006101408201905061282e600083018d612759565b61283b602083018c6123dc565b612848604083018b6123dc565b818103606083015261285a818a61252c565b9050818103608083015261286e818961252c565b905061287d60a0830188612759565b81810360c083015261288f818761252c565b905081810360e08301526128a3818661252c565b90506128b3610100830185612759565b6128c1610120830184612759565b9b9a5050505050505050505050565b60006040820190506128e56000830185612759565b6128f260208301846124e4565b9392505050565b6000604051905081810181811067ffffffffffffffff821117156129205761291f612c58565b5b8060405250919050565b600067ffffffffffffffff82111561294557612944612c58565b5b601f19601f8301169050602081019050919050565b6000819050602082019050919050565b6000819050602082019050919050565b600081519050919050565b600081519050919050565b600081519050919050565b6000602082019050919050565b6000602082019050919050565b600082825260208201905092915050565b600082825260208201905092915050565b600082825260208201905092915050565b600082825260208201905092915050565b6000612a0482612b04565b9150612a0f83612b04565b9250827fffffffffffffffffffffffffffffffffffffffffffffffffffffffffffffffff03821115612a4457612a43612bcb565b5b828201905092915050565b6000612a5a82612b04565b9150612a6583612b04565b925082612a7557612a74612bfa565b5b828204905092915050565b6000612a8b82612b04565b9150612a9683612b04565b925082821015612aa957612aa8612bcb565b5b828203905092915050565b6000612abf82612ae4565b9050919050565b6000612ad182612ae4565b9050919050565b60008115159050919050565b600073ffffffffffffffffffffffffffffffffffffffff82169050919050565b6000819050919050565b82818337600083830152505050565b60005b83811015612b3b578082015181840152602081019050612b20565b83811115612b4a576000848401525b50505050565b60006002820490506001821680612b6857607f821691505b60208210811415612b7c57612b7b612c29565b5b50919050565b6000612b8d82612b04565b91507fffffffffffffffffffffffffffffffffffffffffffffffffffffffffffffffff821415612bc057612bbf612bcb565b5b600182019050919050565b7f4e487b7100000000000000000000000000000000000000000000000000000000600052601160045260246000fd5b7f4e487b7100000000000000000000000000000000000000000000000000000000600052601260045260246000fd5b7f4e487b7100000000000000000000000000000000000000000000000000000000600052602260045260246000fd5b7f4e487b7100000000000000000000000000000000000000000000000000000000600052604160045260246000fd5b6000601f19601f8301169050919050565b612ca181612ab4565b8114612cac57600080fd5b50565b612cb881612ac6565b8114612cc357600080fd5b50565b612ccf81612b04565b8114612cda57600080fd5b5056fea26469706673582212202d79e5f371ca0d62c4ef22a444bb15ba25dd2bb4f88c21d05613c553aeb614d064736f6c63430008000033",
  "linkReferences": {},
  "deployedLinkReferences": {}
}